:020000003128A5
:08000800DF0003088301DE00A4
:100010000408DD006E28A301A200FF30A207031C24
:10002000A307031C2D280330A100DF3019200D2861
:10003000A101E83EA000A109FC30031C2228A00772
:1000400003181F28A0070000A10F1F282018282828
:10005000A01C2C2800002C280800831383120313F3
:1000600008008301FF238316900083120730990054
:1000700083169F018312990083169F0181130F300D
:10008000850001138312051285160B30A300B830CA
:100090000C208B010B168B17A601003005180130C0
:1000A000A5000130A608031D0030A50503196D2821
:1000B0008316051283120516831685128312851284
:1000C00083168510831285100130A300F4300C20B4
:1000D0008316851401308312A6004D288B10103032
:1000E0008506831605122030831285068316851235
:1000F00083125D0884005E088300DF0E5F0E090036
:02010000802855
:02400E00C43FAD
:00000001FF
